:020000040000FA
:10000000900C0020D5000000EF000000F10000007F
:1000100000000000000000000000000000000000E0
:10002000000000000000000000000000F3000000DD
:100030000000000000000000F5000000F7000000D4
:10004000F9000000F9000000F9000000F9000000CC
:10005000F900000000000000F9000000F9000000B5
:10006000F9000000F9000000F9000000F9000000AC
:10007000F9000000F9000000F9000000F90000009C
:10008000F9000000F9000000F9000000F90000008C
:10009000F9000000F9000000F9000000F90000007C
:1000A000F9000000F900000000000000000000005E
:1000B0000000000000000000000000000000000040
:1000C0000348854600F04AF800480047B1080000A0
:1000D000900C00200321094802680A430260084886
:1000E00002680A4302600748804707480047FEE766
:1000F000FEE7FEE7FEE7FEE7FEE70000240500401E
:100100005405004041050000C100000030B50B4619
:10011000014600202022012409E00D46D5409D42E1
:1001200005D31D469540491B254695404019154667
:10013000521E002DF1DC30BD03460B439B0703D05C
:1001400009E008C9121F08C0042AFAD203E00B789C
:100150000370401C491C521EF9D27047064C012501
:10016000064E05E0E36807CC2B430C3C984710345F
:10017000B442F7D3FFF7A8FF0009000020090000F0
:10018000F8B504460D4616461F4600F0F5F914482A
:100190000069A04220D9002C15D0182060431049D6
:1001A00018310D50182060434018466018206043F5
:1001B0004018876000221820604340180261182010
:1001C00060434018C26018216143054A18328918FB
:1001D000069848610020F8BD0020C043FBE70000FE
:1001E00004000020F7B582B00446164600F0C4F9BA
:1001F0001820604348494018007D8007800F02287E
:100200001ED018206043401807691820604340182A
:10021000C068381A451E002D04DA182060434018C3
:1002200080684519AE420BDD182060433A494018FA
:10023000007D8007800F002801D105B0F0BD2E465B
:10024000002E01D10020F8E70020019000BF182007
:100250006043314940180769182060434018C0685E
:10026000381A451E002D04DA1820604340188068B3
:1002700045191820604328494018826818206043B7
:100280004018C068101AA84201DD284609E018206D
:100290006043214940188268182060434018C068B4
:1002A000101A0546B54201DA284600E030460546F8
:1002B00018216143184A89184A6818216143164B6E
:1002C000C918C96850182A460399FFF735FF0198E5
:1002D00040190190039840190390761B1820604341
:1002E0000D494018C0684219182060434018C26088
:1002F000182060434018C268182060434018806886
:10030000824204D10022182060434018C260002EAF
:100310009DD1019891E700001C0000200FB438B572
:10032000044606A800906A462046059900F004F8A5
:1003300038BC08BC04B01847F7B59AB00D4614464F
:1003400002A8159040201690002017901A98199036
:100350000020189000BF2E786D1C002E00D1DCE02C
:10036000252E74D1002700BF2E78232E12D02B2EDD
:100370000CD02D2E02D0302E10D103E001200743E7
:100380006D1C0CE0022007436D1C08E004200743AD
:100390006D1C04E0082007436D1C00E001E000BF75
:1003A000E2E70020129000BF2E78302E01DB392EBC
:1003B00000DD08E06D1C0A211298484331463039AF
:1003C00040181290F0E700BF002013902E782E2ED8
:1003D00011D16D1C00BF2E78302E01DB392E00DDCF
:1003E00008E06D1C0A211398484331463039401803
:1003F0001390F0E700BF2E7800BF6C2E01D0682E5E
:1004000002D12E786D1C00E000E0F6E700BF702EF0
:1004100062D008DC252E70D0582E38D0632E09D03B
:10042000642E6FD114E0732E40D0752E1FD0782E1D
:1004300068D12BE02168081D20600868149014988A
:10044000C0B2019015A8019900F0AEF95AE05CE045
:100450002168081D20600868149012980197009088
:100460000A2215A8139B149900F087F84AE0216826
:10047000081D2060086814901298019700900A22C5
:1004800015A8139B149900F0FFF83BE000BF21680A
:10049000081D20600868149012980197009010229F
:1004A00015A8139B149900F0EFF82BE02168081DA4
:1004B00020600868019000BF01980678401C0190F8
:1004C000002E00D106E0314615A800F06DF918980D
:1004D0000028F1DA00BF15E02168081D20600868D7
:1004E0001490002008210B4610220091019015A8BD
:1004F000149900F0C9F805E0FFE7252115A800F0E0
:1005000053F900BF00BF6D1C03E0314615A800F091
:100510004BF91898002800DB1DE700BF1898002849
:100520000BDD1798002804D002A9179A1A98FFF734
:1005300059FE179918984018189018981DB0F0BDDA
:1005400010B500F07FF9002805D00748074948603A
:10055000C8130749886100F059F9002802D001202A
:100560000449886010BD0000DFFF07C0000500409F
:10057000006C0040000600407047FFB585B007469C
:100580000E460F9D0E9C002E01DA704200E03046B0
:1005900003900120049007E007990398FFF7B6FD48
:1005A00003900498401C0490079903988842F3D262
:1005B00004990898884201D908980490002C06D024
:1005C000002E03DB04202840042800D1641E0220F2
:1005D0002840002802D00898002816D0E807C00F4D
:1005E000002812D1002C10D008E02021384600F05D
:1005F000DBF8F868002801DA09B0F0BD002C04D05F
:100600002046641E04998842EFD8002E08DA76420C
:100610002D21384600F0C8F8F86800280CDAEBE71E
:1006200004202840042807D12B21384600F0BCF8CC
:10063000F868002800DADFE702202840022818D1F5
:10064000E807C00F002814D10898002811D1002C09
:100650000FD007E03021384600F0A6F8F8680028EF
:1006600000DAC9E7002C04D02046641E04998842B1
:10067000F0D80195009431463846089B079A00F05F
:1006800003F800BFB8E70000FFB585B015461E4669
:100690000E9C0127069803900120029007E029464E
:1006A0000398FFF733FD03900298401C02900398D3
:1006B000A842F4D20298864200D902960F98C00749
:1006C000C00F00281FD1002C1DD002210F98084018
:1006D000022804D1002E02D13020019001E0202018
:1006E000019009E00199059800F05EF80598C0684E
:1006F000002801DA09B0F0BD002C04D02046641EA9
:1007000002998842EED802E03846684307463946E7
:100710000698FFF7FBFCA84201D3012000E000206F
:100720003146761E012901DD012100E00021084348
:100730000028E9D100BF39460698FFF7E7FC04908E
:10074000049878430699081A0690164A0498115C92
:10075000059800F029F80598C068002800DA06E03E
:1007600029463846FFF7D2FC0746002FE3D100BFE9
:100770000F98C007C00F002812D0002C10D008E03E
:100780002021059800F010F80598C068002800DACC
:10079000B0E7002C04D02046641E02998842EFD8AE
:1007A00000BFA7E7E408000070B504460E46A56840
:1007B000681C6168814206DB20684655681CA060A1
:1007C000E068401CE0606168A06888420DD1A268C2
:1007D00021682069FFF706FDA168884203D0002048
:1007E000C043E06001E00020A06070BD02E008C8E6
:1007F000121F08C1002AFAD170477047002001E09B
:1008000001C1121F002AFBD1704700000C48008C68
:10081000C0B2012812D10A48808C0007000F0028BE
:100820000CD10748806AF0210840402806D10448CE
:10083000C06A0840002801D1012070470020FCE771
:10084000C00F00F01948008CC0B201282CD1174805
:10085000808C0007000F002826D11448806AF02100
:100860000840002806D11148C06A0840002801D17C
:10087000012070470D48806AF0210840102806D1F9
:100880000A48C06A0840002801D10120F1E7074862
:10089000806AF0210840302806D10448C06A084028
:1008A000002801D10120E4E70020E2E7C00F00F0BA
:1008B00008B500200346024601460090FFF760FCA1
:1008C00002A10020FFF72AFD00BFFEE74170706C17
:1008D00069636174696F6E20537461727465640A30
:1008E0000000000030313233343536373839414278
:1008F000434445465465726D696E616C00000000AA
:10090000200900000000002080000000EC0700002B
:10091000A009000080000020100C0000FC0700006F
:100920000024F400534547474552205254540000D8
:10093000000000000200000002000000F4080000B7
:100940008000002000040000000000000000000003
:100950000000000000000000000000000000000097
:10096000000000000000000000000000F40800008B
:1009700080040020100000000000000000000000C3
:100980000000000000000000000000000000000067
:100990000000000000000000000000000000000057
:04000005000000C136
:00000001FF
